{
  "contractName": "AlyraStaking",
  "abi": [
    {
      "inputs": [],
      "name": "STAKING_PERIODICITY",
      "outputs": [
        {
          "internalType": "uint256",
          "name": "",
          "type": "uint256"
        }
      ],
      "stateMutability": "view",
      "type": "function"
    },
    {
      "inputs": [],
      "name": "STAKING_RATE",
      "outputs": [
        {
          "internalType": "uint256",
          "name": "",
          "type": "uint256"
        }
      ],
      "stateMutability": "view",
      "type": "function"
    },
    {
      "inputs": [
        {
          "internalType": "address",
          "name": "",
          "type": "address"
        }
      ],
      "name": "tokenMap",
      "outputs": [
        {
          "internalType": "uint256",
          "name": "",
          "type": "uint256"
        }
      ],
      "stateMutability": "view",
      "type": "function"
    },
    {
      "inputs": [
        {
          "internalType": "uint256",
          "name": "",
          "type": "uint256"
        }
      ],
      "name": "tokens",
      "outputs": [
        {
          "internalType": "address",
          "name": "tokenAddress",
          "type": "address"
        },
        {
          "internalType": "uint256",
          "name": "stakedAmount",
          "type": "uint256"
        },
        {
          "internalType": "uint256",
          "name": "previousStakedAmountPerSecond",
          "type": "uint256"
        },
        {
          "internalType": "uint256",
          "name": "lastTransactionDate",
          "type": "uint256"
        }
      ],
      "stateMutability": "view",
      "type": "function"
    },
    {
      "inputs": [],
      "name": "GetStakingRate",
      "outputs": [
        {
          "internalType": "uint256",
          "name": "",
          "type": "uint256"
        }
      ],
      "stateMutability": "view",
      "type": "function"
    },
    {
      "inputs": [],
      "name": "GetStakingPeriodicity",
      "outputs": [
        {
          "internalType": "uint256",
          "name": "",
          "type": "uint256"
        }
      ],
      "stateMutability": "view",
      "type": "function"
    },
    {
      "inputs": [],
      "name": "GetStakedTokens",
      "outputs": [
        {
          "components": [
            {
              "internalType": "address",
              "name": "tokenAddress",
              "type": "address"
            },
            {
              "internalType": "uint256",
              "name": "stakedAmount",
              "type": "uint256"
            },
            {
              "internalType": "uint256",
              "name": "previousStakedAmountPerSecond",
              "type": "uint256"
            },
            {
              "internalType": "uint256",
              "name": "lastTransactionDate",
              "type": "uint256"
            }
          ],
          "internalType": "struct AlyraStaking.Token[]",
          "name": "",
          "type": "tuple[]"
        }
      ],
      "stateMutability": "view",
      "type": "function"
    },
    {
      "inputs": [
        {
          "internalType": "address",
          "name": "tokenAddress",
          "type": "address"
        },
        {
          "internalType": "uint256",
          "name": "amount",
          "type": "uint256"
        }
      ],
      "name": "stakeToken",
      "outputs": [],
      "stateMutability": "nonpayable",
      "type": "function"
    },
    {
      "inputs": [
        {
          "internalType": "address",
          "name": "tokenAddress",
          "type": "address"
        },
        {
          "internalType": "uint256",
          "name": "amount",
          "type": "uint256"
        }
      ],
      "name": "withdrawToken",
      "outputs": [],
      "stateMutability": "nonpayable",
      "type": "function"
    },
    {
      "inputs": [
        {
          "internalType": "address",
          "name": "tokenAddress",
          "type": "address"
        }
      ],
      "name": "getTokenStakedAmount",
      "outputs": [
        {
          "internalType": "uint256",
          "name": "",
          "type": "uint256"
        }
      ],
      "stateMutability": "view",
      "type": "function"
    },
    {
      "inputs": [
        {
          "internalType": "address",
          "name": "tokenAddress",
          "type": "address"
        }
      ],
      "name": "getTokenReward",
      "outputs": [
        {
          "internalType": "uint256",
          "name": "",
          "type": "uint256"
        }
      ],
      "stateMutability": "view",
      "type": "function"
    },
    {
      "inputs": [
        {
          "internalType": "address",
          "name": "tokenAddress",
          "type": "address"
        }
      ],
      "name": "getTokenPrice",
      "outputs": [
        {
          "internalType": "int256",
          "name": "",
          "type": "int256"
        }
      ],
      "stateMutability": "view",
      "type": "function"
    },
    {
      "inputs": [],
      "name": "getAllTokensRewardsInETH",
      "outputs": [
        {
          "internalType": "uint256",
          "name": "",
          "type": "uint256"
        }
      ],
      "stateMutability": "view",
      "type": "function"
    }
  ],
  "bytecode": "0x60806040526040516100109061007f565b604051809103906000f08015801561002c573d6000803e3d6000fd5b50600260006101000a81548173ffffffffffffffffffffffffffffffffffffffff021916908373ffffffffffffffffffffffffffffffffffffffff16021790555034801561007957600080fd5b5061008c565b61033d80611c5a83390190565b611bbf8061009b6000396000f3fe608060405234801561001057600080fd5b50600436106100ce5760003560e01c806394e81ce91161008c578063d02641a011610066578063d02641a014610218578063ded5244914610248578063f739ed9e14610266578063fea99c4b14610282576100ce565b806394e81ce9146101c05780639e281a98146101de578063cadf195e146101fa576100ce565b80624aca6e146100d3578063225b500d146101035780634f64b2be1461012157806361f4a977146101545780638388a69e146101725780638cc3534814610190575b600080fd5b6100ed60048036038101906100e891906111c3565b6102b2565b6040516100fa919061161f565b60405180910390f35b61010b6102ca565b604051610118919061161f565b60405180910390f35b61013b600480360381019061013691906112d3565b6103ea565b60405161014b949392919061151d565b60405180910390f35b61015c61044a565b6040516101699190611562565b60405180910390f35b61017a61051d565b604051610187919061161f565b60405180910390f35b6101aa60048036038101906101a591906111c3565b610528565b6040516101b7919061161f565b60405180910390f35b6101c86105d9565b6040516101d5919061161f565b60405180910390f35b6101f860048036038101906101f391906111f0565b6105de565b005b610202610886565b60405161020f919061161f565b60405180910390f35b610232600480360381019061022d91906111c3565b61088f565b60405161023f9190611584565b60405180910390f35b610250610ad2565b60405161025d919061161f565b60405180910390f35b610280600480360381019061027b91906111f0565b610ad9565b005b61029c600480360381019061029791906111c3565b610e1b565b6040516102a9919061161f565b60405180910390f35b60016020528060005260406000206000915090505481565b60008060005b6000805490508110156103e25760008082815481106102f2576102f16119e0565b5b9060005260206000209060040201905061032f8160000160009054906101000a900473ffffffffffffffffffffffffffffffffffffffff1661088f565b6103b7826040518060800160405290816000820160009054906101000a900473ffffffffffffffffffffffffffffffffffffffff1673ffffffffffffffffffffffffffffffffffffffff1673ffffffffffffffffffffffffffffffffffffffff1681526020016001820154815260200160028201548152602001600382015481525050610f4f565b6103c19190611761565b836103cc91906116da565b92505080806103da90611939565b9150506102d0565b508091505090565b600081815481106103fa57600080fd5b90600052602060002090600402016000915090508060000160009054906101000a900473ffffffffffffffffffffffffffffffffffffffff16908060010154908060020154908060030154905084565b60606000805480602002602001604051908101604052809291908181526020016000905b8282101561051457838290600052602060002090600402016040518060800160405290816000820160009054906101000a900473ffffffffffffffffffffffffffffffffffffffff1673ffffffffffffffffffffffffffffffffffffffff1673ffffffffffffffffffffffffffffffffffffffff16815260200160018201548152602001600282015481526020016003820154815250508152602001906001019061046e565b50505050905090565b600062015180905090565b60008060018060008573ffffffffffffffffffffffffffffffffffffffff1673ffffffffffffffffffffffffffffffffffffffff1681526020019081526020016000205461057691906117bb565b90507fffffffffffffffffffffffffffffffffffffffffffffffffffffffffffffffff8114156105aa5760009150506105d4565b600081815481106105be576105bd6119e0565b5b9060005260206000209060040201600101549150505b919050565b600681565b60008111610621576040517f08c379a0000000000000000000000000000000000000000000000000000000008152600401610618906115bf565b60405180910390fd5b600060018060008573ffffffffffffffffffffffffffffffffffffffff1673ffffffffffffffffffffffffffffffffffffffff1681526020019081526020016000205461066e91906117bb565b90507fffffffffffffffffffffffffffffffffffffffffffffffffffffffffffffffff81136106d2576040517f08c379a00000000000000000000000000000000000000000000000000000000081526004016106c9906115df565b60405180910390fd5b60008082815481106106e7576106e66119e0565b5b90600052602060002090600402019050828160010154101561073e576040517f08c379a00000000000000000000000000000000000000000000000000000000081526004016107359061159f565b60405180910390fd5b6107c6816040518060800160405290816000820160009054906101000a900473ffffffffffffffffffffffffffffffffffffffff1673ffffffffffffffffffffffffffffffffffffffff1673ffffffffffffffffffffffffffffffffffffffff1681526020016001820154815260200160028201548152602001600382015481525050610f87565b8160020181905550428160030181905550828160010160008282546107eb919061184f565b925050819055508373ffffffffffffffffffffffffffffffffffffffff1663a9059cbb33856040518363ffffffff1660e01b815260040161082d9291906114f4565b602060405180830381600087803b15801561084757600080fd5b505af115801561085b573d6000803e3d6000fd5b505050506040513d601f19601f8201168201806040525081019061087f9190611230565b5050505050565b60006006905090565b60008173ffffffffffffffffffffffffffffffffffffffff166395d89b416040518163ffffffff1660e01b815260040160006040518083038186803b1580156108d757600080fd5b505afa92505050801561090d57506040513d6000823e3d601f19601f8201168201806040525081019061090a919061128a565b60015b61091a5760009050610acd565b600061092582610fbe565b9050600073ffffffffffffffffffffffffffffffffffffffff168173ffffffffffffffffffffffffffffffffffffffff161415610a13576040518060400160405280600381526020017f415431000000000000000000000000000000000000000000000000000000000081525080519060200120828051906020012014156109b257600a92505050610acd565b6040518060400160405280600381526020017f41543200000000000000000000000000000000000000000000000000000000008152508051906020012082805190602001201415610a0857601492505050610acd565b600092505050610acd565b600260009054906101000a900473ffffffffffffffffffffffffffffffffffffffff1673ffffffffffffffffffffffffffffffffffffffff166316345f18856040518263ffffffff1660e01b8152600401610a6e91906114a2565b60206040518083038186803b158015610a8657600080fd5b505afa925050508015610ab757506040513d601f19601f82011682018060405250810190610ab4919061125d565b60015b610ac657600092505050610acd565b8093505050505b919050565b6201518081565b60008111610b1c576040517f08c379a0000000000000000000000000000000000000000000000000000000008152600401610b13906115ff565b60405180910390fd5b600060018060008573ffffffffffffffffffffffffffffffffffffffff1673ffffffffffffffffffffffffffffffffffffffff16815260200190815260200160002054610b6991906117bb565b90507fffffffffffffffffffffffffffffffffffffffffffffffffffffffffffffffff811415610cab57600060405180608001604052808573ffffffffffffffffffffffffffffffffffffffff1681526020018481526020016000815260200142815250908060018154018082558091505060019003906000526020600020906004020160009091909190915060008201518160000160006101000a81548173ffffffffffffffffffffffffffffffffffffffff021916908373ffffffffffffffffffffffffffffffffffffffff1602179055506020820151816001015560408201518160020155606082015181600301555050600080549050600160008573ffffffffffffffffffffffffffffffffffffffff1673ffffffffffffffffffffffffffffffffffffffff16815260200190815260200160002081905550610d86565b6000808281548110610cc057610cbf6119e0565b5b90600052602060002090600402019050610d58816040518060800160405290816000820160009054906101000a900473ffffffffffffffffffffffffffffffffffffffff1673ffffffffffffffffffffffffffffffffffffffff1673ffffffffffffffffffffffffffffffffffffffff1681526020016001820154815260200160028201548152602001600382015481525050610f87565b816002018190555082816001016000828254610d7491906116da565b92505081905550428160030181905550505b8273ffffffffffffffffffffffffffffffffffffffff166323b872dd3330856040518463ffffffff1660e01b8152600401610dc3939291906114bd565b602060405180830381600087803b158015610ddd57600080fd5b505af1158015610df1573d6000803e3d6000fd5b505050506040513d601f19601f82011682018060405250810190610e159190611230565b50505050565b60008060018060008573ffffffffffffffffffffffffffffffffffffffff1673ffffffffffffffffffffffffffffffffffffffff16815260200190815260200160002054610e6991906117bb565b90507fffffffffffffffffffffffffffffffffffffffffffffffffffffffffffffffff811415610e9d576000915050610f4a565b610f4660008281548110610eb457610eb36119e0565b5b90600052602060002090600402016040518060800160405290816000820160009054906101000a900473ffffffffffffffffffffffffffffffffffffffff1673ffffffffffffffffffffffffffffffffffffffff1673ffffffffffffffffffffffffffffffffffffffff1681526020016001820154815260200160028201548152602001600382015481525050610f4f565b9150505b919050565b60006064620151806006610f6285610f87565b610f6c9190611761565b610f769190611730565b610f809190611730565b9050919050565b60008160200151826060015142610f9e919061184f565b610fa89190611761565b8260400151610fb791906116da565b9050919050565b60006040518060400160405280600381526020017f425443000000000000000000000000000000000000000000000000000000000081525080519060200120828051906020012014156110275773c751e86208f0f8af2d5cd0e29716ca7ad98b5ef590506110fa565b6040518060400160405280600381526020017f4441490000000000000000000000000000000000000000000000000000000000815250805190602001208280519060200120141561108e577374825dbc8bf76cc4e9494d0ecb210f676efa001d90506110fa565b6040518060400160405280600481526020017f555344430000000000000000000000000000000000000000000000000000000081525080519060200120828051906020012014156110f55773dca36f27cbc4e38ae16c4e9f99d39b42337f6dcf90506110fa565b600090505b919050565b600061111261110d8461165f565b61163a565b90508281526020810184848401111561112e5761112d611a43565b5b6111398482856118d5565b509392505050565b60008135905061115081611b2d565b92915050565b60008151905061116581611b44565b92915050565b60008151905061117a81611b5b565b92915050565b600082601f83011261119557611194611a3e565b5b81516111a58482602086016110ff565b91505092915050565b6000813590506111bd81611b72565b92915050565b6000602082840312156111d9576111d8611a4d565b5b60006111e784828501611141565b91505092915050565b6000806040838503121561120757611206611a4d565b5b600061121585828601611141565b9250506020611226858286016111ae565b9150509250929050565b60006020828403121561124657611245611a4d565b5b600061125484828501611156565b91505092915050565b60006020828403121561127357611272611a4d565b5b60006112818482850161116b565b91505092915050565b6000602082840312156112a05761129f611a4d565b5b600082015167ffffffffffffffff8111156112be576112bd611a48565b5b6112ca84828501611180565b91505092915050565b6000602082840312156112e9576112e8611a4d565b5b60006112f7848285016111ae565b91505092915050565b600061130c838361142f565b60808301905092915050565b61132181611883565b82525050565b61133081611883565b82525050565b6000611341826116a0565b61134b81856116b8565b935061135683611690565b8060005b8381101561138757815161136e8882611300565b9750611379836116ab565b92505060018101905061135a565b5085935050505092915050565b61139d816118a1565b82525050565b60006113b06019836116c9565b91506113bb82611a63565b602082019050919050565b60006113d3601b836116c9565b91506113de82611a8c565b602082019050919050565b60006113f66037836116c9565b915061140182611ab5565b604082019050919050565b60006114196018836116c9565b915061142482611b04565b602082019050919050565b6080820160008201516114456000850182611318565b5060208201516114586020850182611484565b50604082015161146b6040850182611484565b50606082015161147e6060850182611484565b50505050565b61148d816118cb565b82525050565b61149c816118cb565b82525050565b60006020820190506114b76000830184611327565b92915050565b60006060820190506114d26000830186611327565b6114df6020830185611327565b6114ec6040830184611493565b949350505050565b60006040820190506115096000830185611327565b6115166020830184611493565b9392505050565b60006080820190506115326000830187611327565b61153f6020830186611493565b61154c6040830185611493565b6115596060830184611493565b95945050505050565b6000602082019050818103600083015261157c8184611336565b905092915050565b60006020820190506115996000830184611394565b92915050565b600060208201905081810360008301526115b8816113a3565b9050919050565b600060208201905081810360008301526115d8816113c6565b9050919050565b600060208201905081810360008301526115f8816113e9565b9050919050565b600060208201905081810360008301526116188161140c565b9050919050565b60006020820190506116346000830184611493565b92915050565b6000611644611655565b90506116508282611908565b919050565b6000604051905090565b600067ffffffffffffffff82111561167a57611679611a0f565b5b61168382611a52565b9050602081019050919050565b6000819050602082019050919050565b600081519050919050565b6000602082019050919050565b600082825260208201905092915050565b600082825260208201905092915050565b60006116e5826118cb565b91506116f0836118cb565b9250827fffffffffffffffffffffffffffffffffffffffffffffffffffffffffffffffff0382111561172557611724611982565b5b828201905092915050565b600061173b826118cb565b9150611746836118cb565b925082611756576117556119b1565b5b828204905092915050565b600061176c826118cb565b9150611777836118cb565b9250817fffffffffffffffffffffffffffffffffffffffffffffffffffffffffffffffff04831182151516156117b0576117af611982565b5b828202905092915050565b60006117c6826118a1565b91506117d1836118a1565b9250827f80000000000000000000000000000000000000000000000000000000000000000182126000841215161561180c5761180b611982565b5b827f7fffffffffffffffffffffffffffffffffffffffffffffffffffffffffffffff01821360008412161561184457611843611982565b5b828203905092915050565b600061185a826118cb565b9150611865836118cb565b92508282101561187857611877611982565b5b828203905092915050565b600061188e826118ab565b9050919050565b60008115159050919050565b6000819050919050565b600073ffffffffffffffffffffffffffffffffffffffff82169050919050565b6000819050919050565b60005b838110156118f35780820151818401526020810190506118d8565b83811115611902576000848401525b50505050565b61191182611a52565b810181811067ffffffffffffffff821117156119305761192f611a0f565b5b80604052505050565b6000611944826118cb565b91507fffffffffffffffffffffffffffffffffffffffffffffffffffffffffffffffff82141561197757611976611982565b5b600182019050919050565b7f4e487b7100000000000000000000000000000000000000000000000000000000600052601160045260246000fd5b7f4e487b7100000000000000000000000000000000000000000000000000000000600052601260045260246000fd5b7f4e487b7100000000000000000000000000000000000000000000000000000000600052603260045260246000fd5b7f4e487b7100000000000000000000000000000000000000000000000000000000600052604160045260246000fd5b600080fd5b600080fd5b600080fd5b600080fd5b6000601f19601f8301169050919050565b7f4e6f7420656e6f756768207374616b656420746f6b656e732e00000000000000600082015250565b7f596f752063616e6e6f74207769746864726177203020746f6b656e0000000000600082015250565b7f5365656d7320796f75206e65766572207374616b65642074686520676976656e60008201527f20746f6b656e206f6e207468697320636f6e7472616374000000000000000000602082015250565b7f596f752063616e6e6f74207374616b65203020746f6b656e0000000000000000600082015250565b611b3681611883565b8114611b4157600080fd5b50565b611b4d81611895565b8114611b5857600080fd5b50565b611b64816118a1565b8114611b6f57600080fd5b50565b611b7b816118cb565b8114611b8657600080fd5b5056fea2646970667358221220a1d49e32f664791fb99360ae2a0560a2185d1907865ea0dfcdf87689c38f5c4a64736f6c63430008070033608060405234801561001057600080fd5b5061031d806100206000396000f3fe608060405234801561001057600080fd5b506004361061002b5760003560e01c806316345f1814610030575b600080fd5b61004a60048036038101906100459190610158565b610060565b604051610057919061020f565b60405180910390f35b60008082905060008060008060008573ffffffffffffffffffffffffffffffffffffffff1663feaf968c6040518163ffffffff1660e01b815260040160a06040518083038186803b1580156100b457600080fd5b505afa1580156100c8573d6000803e3d6000fd5b505050506040513d601f19601f820116820180604052508101906100ec9190610185565b94509450945094509450839650505050505050919050565b6000813590506101138161028b565b92915050565b600081519050610128816102a2565b92915050565b60008151905061013d816102b9565b92915050565b600081519050610152816102d0565b92915050565b60006020828403121561016e5761016d610286565b5b600061017c84828501610104565b91505092915050565b600080600080600060a086880312156101a1576101a0610286565b5b60006101af88828901610143565b95505060206101c088828901610119565b94505060406101d18882890161012e565b93505060606101e28882890161012e565b92505060806101f388828901610143565b9150509295509295909350565b6102098161023c565b82525050565b60006020820190506102246000830184610200565b92915050565b600061023582610246565b9050919050565b6000819050919050565b600073ffffffffffffffffffffffffffffffffffffffff82169050919050565b6000819050919050565b600069ffffffffffffffffffff82169050919050565b600080fd5b6102948161022a565b811461029f57600080fd5b50565b6102ab8161023c565b81146102b657600080fd5b50565b6102c281610266565b81146102cd57600080fd5b50565b6102d981610270565b81146102e457600080fd5b5056fea2646970667358221220ba9cc428b0dee054f98a7fe9ec517344f3650d078bf6508a7cf4d92830ea0e4e64736f6c63430008070033",
  "immutableReferences": {},
  "source": "// Staking.sol\n// SPDX-License-Identifier: MIT\npragma solidity 0.8.7;\n\n  import \"@openzeppelin/contracts/utils/math/SafeMath.sol\";\n  import \"../contracts/PriceConsumerV3.sol\";\n  import '@openzeppelin/contracts/token/ERC20/IERC20.sol';\n  import '@openzeppelin/contracts/token/ERC20/ERC20.sol';\n\n \n\n contract AlyraStaking {\n   \n    // Constants\n    uint public constant STAKING_RATE = 6;\n    // define here what the rate refers to. Usually it would be a year = 52 weeks in solidity\n    // but for test purpose it can be easier to use shorter period like one day\n    uint public constant STAKING_PERIODICITY = 1 days;\n       \n    // will store an entry information\n    // - stakedAmount = sum of staked amount less sum of withdrawn amounts\n    // - previousStakedAmountPerSecond = necessary to calculate reward without the need to keep a sub-array per token\n    // - lastTransactionDate: last date to use for calculation\n    struct Token {\n        address tokenAddress;\n        uint stakedAmount;\n        uint previousStakedAmountPerSecond;\n        uint lastTransactionDate;\n    }\n    Token[] public tokens;\n    mapping(address => uint) public tokenMap;\n    \n    PriceConsumerV3 private priceConsumerV3 = new PriceConsumerV3();\n    \n    /// @notice calculate staked amount per second\n    /// @param token struct containing the necessary information\n    /// @return an uint\n    function getNewStakedAmountPerSecond (Token memory token) private view returns (uint){\n        return token.previousStakedAmountPerSecond + ((block.timestamp - token.lastTransactionDate) * token.stakedAmount);\n    }\n\n    /// @notice calculate reward based on token parameter\n    /// @param token struct containing the necessary information\n    /// @return an uint\n    function calculateReward (Token memory token) private view returns (uint){\n        return ((getNewStakedAmountPerSecond(token) * STAKING_RATE) / STAKING_PERIODICITY) / 100;\n    }\n    \n    function GetStakingRate () public view returns (uint) {\n        return STAKING_RATE;\n    }\n\n    function GetStakingPeriodicity () public view returns (uint) {\n        return STAKING_PERIODICITY;\n    }\n    \n    function GetStakedTokens () public view returns (Token[] memory) {\n        return tokens;\n    }\n\n    /// @notice Stake an amount of a specific ERC20 token\n    /// @param tokenAddress address of the staked token\n    /// @param amount staked amount\n    function stakeToken (address tokenAddress, uint amount) public {\n        require(amount > 0, \"You cannot stake 0 token\");\n\n        int arrayIndex = int(tokenMap[tokenAddress]) - 1;\n        if (arrayIndex == -1) {\n            tokens.push(Token(tokenAddress, amount, 0, block.timestamp));\n            tokenMap[tokenAddress] = tokens.length;\n        }\n        else {\n            Token storage currentToken = tokens[uint(arrayIndex)];\n            currentToken.previousStakedAmountPerSecond = getNewStakedAmountPerSecond(currentToken);\n            currentToken.stakedAmount += amount;\n            currentToken.lastTransactionDate = block.timestamp;\n        }\n\n        // transfer amount from stakeholder to the contract\n        // stakeholder will have first approved (minimum = amount) the contract to transfer tokens from its address\n        IERC20(tokenAddress).transferFrom(msg.sender, address(this), amount);\n    }\n    \n    /// @notice Withdraw an amount of a specific ERC20 token\n    /// @param tokenAddress address of the staked token\n    /// @param amount amount to be withdrawn\n    function withdrawToken (address tokenAddress, uint amount) public {\n        require(amount > 0, \"You cannot withdraw 0 token\");\n\n        int arrayIndex = int(tokenMap[tokenAddress]) - 1;\n        require(arrayIndex > -1, \"Seems you never staked the given token on this contract\");\n        \n        Token storage currentToken = tokens[uint(arrayIndex)];\n        require(currentToken.stakedAmount >= amount, \"Not enough staked tokens.\");\n        \n        currentToken.previousStakedAmountPerSecond = getNewStakedAmountPerSecond(currentToken);\n        currentToken.lastTransactionDate = block.timestamp;\n        currentToken.stakedAmount -= amount;\n\n        // transfer amount back to stakeholder\n        IERC20(tokenAddress).transfer(msg.sender, amount);\n    }\n    \n    /// @notice indicate the total staked amount of a given token \n    /// @param tokenAddress address of the staked token\n    /// @return an uint\n    function getTokenStakedAmount (address tokenAddress) public view returns (uint) {\n        int arrayIndex = int(tokenMap[tokenAddress]) - 1;\n        if (arrayIndex == -1) {\n            return 0;\n        }\n        else {\n            return tokens[uint(arrayIndex)].stakedAmount;\n        }\n    }\n\n    /// @notice indicate the calculated reward amount for a given token\n    /// @param tokenAddress address of the staked token\n    /// @return an uint\n    function getTokenReward (address tokenAddress) public view returns (uint) {\n        int arrayIndex = int(tokenMap[tokenAddress]) - 1;\n        if (arrayIndex == -1) {\n            return 0;\n        }\n        else {\n            return calculateReward(tokens[uint(arrayIndex)]);\n        }\n    }\n    \n    /// @notice factory to give chainlink data feed address for Rinkeby testnet\n    /// @param sourceTokenSymbol symbol of the token\n    /// @return an address\n    function getDataFeedAddressToETH (string memory sourceTokenSymbol) private pure returns (address) {\n        if(keccak256(bytes(sourceTokenSymbol)) == keccak256(bytes(\"BTC\"))) {\n            return address(0xc751E86208F0F8aF2d5CD0e29716cA7AD98B5eF5);\n        }\n        else if(keccak256(bytes(sourceTokenSymbol)) == keccak256(bytes(\"DAI\"))) {\n            return address(0x74825DbC8BF76CC4e9494d0ecB210f676Efa001D);\n        }\n        else if(keccak256(bytes(sourceTokenSymbol)) == keccak256(bytes(\"USDC\"))) {\n            return address(0xdCA36F27cbC4E38aE16C4E9f99D39b42337F6dcf);\n        }\n        else {\n            return address(0);\n        }\n    }\n    \n    /// @notice return the corresponding Rinkeby chainlink price for a token\n    /// @dev note: for test purpose it also returns 10 for AT1 and 20 for AT2 tokens\n    /// @param tokenAddress address of the staked token\n    /// @return an uint\n    function getTokenPrice (address tokenAddress) public view returns (int) {\n        try ERC20(tokenAddress).symbol() returns (string memory tokenSymbol) {\n            address datafeedAddress = getDataFeedAddressToETH(tokenSymbol);\n            if (datafeedAddress == address(0)) {\n                if (keccak256(bytes(tokenSymbol)) == keccak256(bytes(\"AT1\"))) {\n                    return 10;\n                }\n                else if (keccak256(bytes(tokenSymbol)) == keccak256(bytes(\"AT2\"))) {\n                    return 20;\n                }\n                else {\n                    return 0;\n                }\n            }\n            else {\n                try priceConsumerV3.getLatestPrice(tokenAddress) returns (int price) {\n                    return price;\n                } catch {\n                    return 0;\n                }\n            }\n        }\n        catch {\n            return 0;\n        }\n    }\n    \n    /// @notice return the total stake reward price in ETH\n    /// @return an uint\n    function getAllTokensRewardsInETH () public view returns (uint) {\n        uint totalRewardsInETH;\n        for (uint tokenCounter=0; tokenCounter<tokens.length; tokenCounter++) {\n            Token storage currentToken = tokens[tokenCounter];\n            totalRewardsInETH += calculateReward(currentToken) * uint(getTokenPrice(currentToken.tokenAddress));\n        }\n        return totalRewardsInETH;\n    }\n}",
  "sourcePath": "C:\\Users\\xtrem\\OneDrive\\Documents\\LearnDAPP_Alyra\\Staking_defi_4\\Staking\\contracts\\Staking.sol",
  "compiler": {
    "name": "solc",
    "version": "0.8.7+commit.e28d00a7.Emscripten.clang"
  },
  "schemaVersion": "3.4.3",
  "updatedAt": "2021-12-05T15:26:54.830Z",
  "devdoc": {
    "kind": "dev",
    "methods": {
      "getAllTokensRewardsInETH()": {
        "returns": {
          "_0": "an uint"
        }
      },
      "getTokenPrice(address)": {
        "details": "note: for test purpose it also returns 10 for AT1 and 20 for AT2 tokens",
        "params": {
          "tokenAddress": "address of the staked token"
        },
        "returns": {
          "_0": "an uint"
        }
      },
      "getTokenReward(address)": {
        "params": {
          "tokenAddress": "address of the staked token"
        },
        "returns": {
          "_0": "an uint"
        }
      },
      "getTokenStakedAmount(address)": {
        "params": {
          "tokenAddress": "address of the staked token"
        },
        "returns": {
          "_0": "an uint"
        }
      },
      "stakeToken(address,uint256)": {
        "params": {
          "amount": "staked amount",
          "tokenAddress": "address of the staked token"
        }
      },
      "withdrawToken(address,uint256)": {
        "params": {
          "amount": "amount to be withdrawn",
          "tokenAddress": "address of the staked token"
        }
      }
    },
    "version": 1
  },
  "userdoc": {
    "kind": "user",
    "methods": {
      "getAllTokensRewardsInETH()": {
        "notice": "return the total stake reward price in ETH"
      },
      "getTokenPrice(address)": {
        "notice": "return the corresponding Rinkeby chainlink price for a token"
      },
      "getTokenReward(address)": {
        "notice": "indicate the calculated reward amount for a given token"
      },
      "getTokenStakedAmount(address)": {
        "notice": "indicate the total staked amount of a given token "
      },
      "stakeToken(address,uint256)": {
        "notice": "Stake an amount of a specific ERC20 token"
      },
      "withdrawToken(address,uint256)": {
        "notice": "Withdraw an amount of a specific ERC20 token"
      }
    },
    "version": 1
  }
}