{
  "contractName": "Staking",
  "abi": [
    {
      "inputs": [
        {
          "internalType": "address",
          "name": "_addresseToken",
          "type": "address"
        }
      ],
      "stateMutability": "nonpayable",
      "type": "constructor"
    },
    {
      "anonymous": false,
      "inputs": [
        {
          "indexed": false,
          "internalType": "address",
          "name": "_receiver",
          "type": "address"
        },
        {
          "indexed": false,
          "internalType": "uint256",
          "name": "_value",
          "type": "uint256"
        }
      ],
      "name": "Depot",
      "type": "event"
    },
    {
      "anonymous": false,
      "inputs": [
        {
          "indexed": false,
          "internalType": "address",
          "name": "_receiver",
          "type": "address"
        },
        {
          "indexed": false,
          "internalType": "uint256",
          "name": "_value",
          "type": "uint256"
        }
      ],
      "name": "Whithdraw",
      "type": "event"
    },
    {
      "inputs": [],
      "name": "PureToken",
      "outputs": [
        {
          "internalType": "contract IERC20",
          "name": "",
          "type": "address"
        }
      ],
      "stateMutability": "view",
      "type": "function",
      "constant": true
    },
    {
      "inputs": [
        {
          "internalType": "address",
          "name": "",
          "type": "address"
        }
      ],
      "name": "TimeStake",
      "outputs": [
        {
          "internalType": "uint256",
          "name": "",
          "type": "uint256"
        }
      ],
      "stateMutability": "view",
      "type": "function",
      "constant": true
    },
    {
      "inputs": [
        {
          "internalType": "address",
          "name": "",
          "type": "address"
        }
      ],
      "name": "TotalReward",
      "outputs": [
        {
          "internalType": "uint256",
          "name": "",
          "type": "uint256"
        }
      ],
      "stateMutability": "view",
      "type": "function",
      "constant": true
    },
    {
      "inputs": [
        {
          "internalType": "address",
          "name": "",
          "type": "address"
        }
      ],
      "name": "balances",
      "outputs": [
        {
          "internalType": "uint256",
          "name": "",
          "type": "uint256"
        }
      ],
      "stateMutability": "view",
      "type": "function",
      "constant": true
    },
    {
      "inputs": [],
      "name": "currentReward",
      "outputs": [
        {
          "internalType": "uint256",
          "name": "",
          "type": "uint256"
        }
      ],
      "stateMutability": "view",
      "type": "function",
      "constant": true
    },
    {
      "inputs": [],
      "name": "tvl",
      "outputs": [
        {
          "internalType": "uint256",
          "name": "",
          "type": "uint256"
        }
      ],
      "stateMutability": "view",
      "type": "function",
      "constant": true
    },
    {
      "stateMutability": "payable",
      "type": "receive",
      "payable": true
    },
    {
      "inputs": [
        {
          "internalType": "uint256",
          "name": "_amount",
          "type": "uint256"
        }
      ],
      "name": "withdrawPayments",
      "outputs": [],
      "stateMutability": "nonpayable",
      "type": "function"
    },
    {
      "inputs": [
        {
          "internalType": "address",
          "name": "_address",
          "type": "address"
        }
      ],
      "name": "reward",
      "outputs": [
        {
          "internalType": "uint256",
          "name": "",
          "type": "uint256"
        }
      ],
      "stateMutability": "nonpayable",
      "type": "function"
    },
    {
      "inputs": [],
      "name": "getTime",
      "outputs": [
        {
          "internalType": "uint256",
          "name": "",
          "type": "uint256"
        }
      ],
      "stateMutability": "view",
      "type": "function",
      "constant": true
    },
    {
      "inputs": [
        {
          "internalType": "address",
          "name": "recipient",
          "type": "address"
        },
        {
          "internalType": "uint256",
          "name": "montant",
          "type": "uint256"
        }
      ],
      "name": "claimReward",
      "outputs": [],
      "stateMutability": "nonpayable",
      "type": "function"
    },
    {
      "inputs": [
        {
          "internalType": "address",
          "name": "token",
          "type": "address"
        }
      ],
      "name": "VoirPrix",
      "outputs": [
        {
          "internalType": "int256",
          "name": "",
          "type": "int256"
        }
      ],
      "stateMutability": "view",
      "type": "function",
      "constant": true
    }
  ],
  "bytecode": "0x60806040526000600155600060035560006004556040516200002190620000f9565b604051809103906000f0801580156200003e573d6000803e3d6000fd5b50600860006101000a81548173ffffffffffffffffffffffffffffffffffffffff021916908373ffffffffffffffffffffffffffffffffffffffff1602179055503480156200008c57600080fd5b5060405162001363380380620013638339818101604052810190620000b291906200011e565b806000806101000a81548173ffffffffffffffffffffffffffffffffffffffff021916908373ffffffffffffffffffffffffffffffffffffffff16021790555050620001a3565b61033d806200102683390190565b600081519050620001188162000189565b92915050565b60006020828403121562000137576200013662000184565b5b6000620001478482850162000107565b91505092915050565b60006200015d8262000164565b9050919050565b600073ffffffffffffffffffffffffffffffffffffffff82169050919050565b600080fd5b620001948162000150565b8114620001a057600080fd5b50565b610e7380620001b36000396000f3fe6080604052600436106100a05760003560e01c8063616cf68811610064578063616cf688146102be5780636353586b146102e95780637e5e7a8f14610326578063e5328e0614610363578063e8ba74ad1461038e578063fc7a4416146103cb576101d4565b806307621eca146101d9578063174e31c41461020457806327e235e31461022d57806341975af81461026a578063557ed1ba14610293576101d4565b366101d4576100f734600560003373ffffffffffffffffffffffffffffffffffffffff1673ffffffffffffffffffffffffffffffffffffffff1681526020019081526020016000205461040890919063ffffffff16565b600560003373ffffffffffffffffffffffffffffffffffffffff1673ffffffffffffffffffffffffffffffffffffffff1681526020019081526020016000208190555061014f3460015461040890919063ffffffff16565b60018190555042600760003373ffffffffffffffffffffffffffffffffffffffff1673ffffffffffffffffffffffffffffffffffffffff168152602001908152602001600020819055507f92d7e50c6d258fcfe05195031b3dda612a749118f6e727e3ac175e8301fd774933346040516101ca929190610b67565b60405180910390a1005b600080fd5b3480156101e557600080fd5b506101ee61041e565b6040516101fb9190610bc6565b60405180910390f35b34801561021057600080fd5b5061022b60048036038101906102269190610a49565b610424565b005b34801561023957600080fd5b50610254600480360381019061024f9190610a1c565b610578565b6040516102619190610bc6565b60405180910390f35b34801561027657600080fd5b50610291600480360381019061028c9190610ae3565b610590565b005b34801561029f57600080fd5b506102a8610710565b6040516102b59190610bc6565b60405180910390f35b3480156102ca57600080fd5b506102d3610718565b6040516102e09190610b90565b60405180910390f35b3480156102f557600080fd5b50610310600480360381019061030b9190610a1c565b61073c565b60405161031d9190610bc6565b60405180910390f35b34801561033257600080fd5b5061034d60048036038101906103489190610a1c565b6108c8565b60405161035a9190610bab565b60405180910390f35b34801561036f57600080fd5b5061037861097c565b6040516103859190610bc6565b60405180910390f35b34801561039a57600080fd5b506103b560048036038101906103b09190610a1c565b610982565b6040516103c29190610bc6565b60405180910390f35b3480156103d757600080fd5b506103f260048036038101906103ed9190610a1c565b61099a565b6040516103ff9190610bc6565b60405180910390f35b600081836104169190610be1565b905092915050565b60025481565b68056bc75e2d63100000816104399190610c37565b600660003373ffffffffffffffffffffffffffffffffffffffff1673ffffffffffffffffffffffffffffffffffffffff168152602001908152602001600020546104839190610cc2565b600660003373ffffffffffffffffffffffffffffffffffffffff1673ffffffffffffffffffffffffffffffffffffffff1681526020019081526020016000208190555060008054906101000a900473ffffffffffffffffffffffffffffffffffffffff1673ffffffffffffffffffffffffffffffffffffffff1663a9059cbb83836040518363ffffffff1660e01b8152600401610521929190610b67565b602060405180830381600087803b15801561053b57600080fd5b505af115801561054f573d6000803e3d6000fd5b505050506040513d601f19601f820116820180604052508101906105739190610a89565b505050565b60056020528060005260406000206000915090505481565b6000600560003373ffffffffffffffffffffffffffffffffffffffff1673ffffffffffffffffffffffffffffffffffffffff1681526020019081526020016000205414156105dd57600080fd5b6105f2816001546109b290919063ffffffff16565b60018190555061064a81600560003373ffffffffffffffffffffffffffffffffffffffff1673ffffffffffffffffffffffffffffffffffffffff168152602001908152602001600020546109b290919063ffffffff16565b600560003373ffffffffffffffffffffffffffffffffffffffff1673ffffffffffffffffffffffffffffffffffffffff168152602001908152602001600020819055503373ffffffffffffffffffffffffffffffffffffffff166108fc829081150290604051600060405180830381858888f193505050501580156106d3573d6000803e3d6000fd5b507fea63ff9fa6efcd26cc8f1274b4db4983618cd56e61ea2cee3cb69e6591abd6903382604051610705929190610b67565b60405180910390a150565b600042905090565b60008054906101000a900473ffffffffffffffffffffffffffffffffffffffff1681565b600080600560008473ffffffffffffffffffffffffffffffffffffffff1673ffffffffffffffffffffffffffffffffffffffff1681526020019081526020016000205490506000600760008573ffffffffffffffffffffffffffffffffffffffff1673ffffffffffffffffffffffffffffffffffffffff16815260200190815260200160002054905042600381905550600760008573ffffffffffffffffffffffffffffffffffffffff1673ffffffffffffffffffffffffffffffffffffffff16815260200190815260200160002054426108179190610cc2565b600481905550655af3107a4000600454836108329190610c68565b61083c9190610c37565b600660008673ffffffffffffffffffffffffffffffffffffffff1673ffffffffffffffffffffffffffffffffffffffff16815260200190815260200160002081905550600660008573ffffffffffffffffffffffffffffffffffffffff1673ffffffffffffffffffffffffffffffffffffffff1681526020019081526020016000205492505050919050565b6000600860009054906101000a900473ffffffffffffffffffffffffffffffffffffffff1673ffffffffffffffffffffffffffffffffffffffff166316345f18836040518263ffffffff1660e01b81526004016109259190610b4c565b60206040518083038186803b15801561093d57600080fd5b505afa158015610951573d6000803e3d6000fd5b505050506040513d601f19601f820116820180604052508101906109759190610ab6565b9050919050565b60015481565b60066020528060005260406000206000915090505481565b60076020528060005260406000206000915090505481565b600081836109c09190610cc2565b905092915050565b6000813590506109d781610de1565b92915050565b6000815190506109ec81610df8565b92915050565b600081519050610a0181610e0f565b92915050565b600081359050610a1681610e26565b92915050565b600060208284031215610a3257610a31610ddc565b5b6000610a40848285016109c8565b91505092915050565b60008060408385031215610a6057610a5f610ddc565b5b6000610a6e858286016109c8565b9250506020610a7f85828601610a07565b9150509250929050565b600060208284031215610a9f57610a9e610ddc565b5b6000610aad848285016109dd565b91505092915050565b600060208284031215610acc57610acb610ddc565b5b6000610ada848285016109f2565b91505092915050565b600060208284031215610af957610af8610ddc565b5b6000610b0784828501610a07565b91505092915050565b610b1981610cf6565b82525050565b610b2881610d48565b82525050565b610b3781610d14565b82525050565b610b4681610d3e565b82525050565b6000602082019050610b616000830184610b10565b92915050565b6000604082019050610b7c6000830185610b10565b610b896020830184610b3d565b9392505050565b6000602082019050610ba56000830184610b1f565b92915050565b6000602082019050610bc06000830184610b2e565b92915050565b6000602082019050610bdb6000830184610b3d565b92915050565b6000610bec82610d3e565b9150610bf783610d3e565b9250827fffffffffffffffffffffffffffffffffffffffffffffffffffffffffffffffff03821115610c2c57610c2b610d7e565b5b828201905092915050565b6000610c4282610d3e565b9150610c4d83610d3e565b925082610c5d57610c5c610dad565b5b828204905092915050565b6000610c7382610d3e565b9150610c7e83610d3e565b9250817fffffffffffffffffffffffffffffffffffffffffffffffffffffffffffffffff0483118215151615610cb757610cb6610d7e565b5b828202905092915050565b6000610ccd82610d3e565b9150610cd883610d3e565b925082821015610ceb57610cea610d7e565b5b828203905092915050565b6000610d0182610d1e565b9050919050565b60008115159050919050565b6000819050919050565b600073ffffffffffffffffffffffffffffffffffffffff82169050919050565b6000819050919050565b6000610d5382610d5a565b9050919050565b6000610d6582610d6c565b9050919050565b6000610d7782610d1e565b9050919050565b7f4e487b7100000000000000000000000000000000000000000000000000000000600052601160045260246000fd5b7f4e487b7100000000000000000000000000000000000000000000000000000000600052601260045260246000fd5b600080fd5b610dea81610cf6565b8114610df557600080fd5b50565b610e0181610d08565b8114610e0c57600080fd5b50565b610e1881610d14565b8114610e2357600080fd5b50565b610e2f81610d3e565b8114610e3a57600080fd5b5056fea2646970667358221220e623e2b51cf378fa96b512abdbed3d8c2d3c839f05ef4e058d31c387cd6e5c8264736f6c63430008070033608060405234801561001057600080fd5b5061031d806100206000396000f3fe608060405234801561001057600080fd5b506004361061002b5760003560e01c806316345f1814610030575b600080fd5b61004a60048036038101906100459190610158565b610060565b604051610057919061020f565b60405180910390f35b60008082905060008060008060008573ffffffffffffffffffffffffffffffffffffffff1663feaf968c6040518163ffffffff1660e01b815260040160a06040518083038186803b1580156100b457600080fd5b505afa1580156100c8573d6000803e3d6000fd5b505050506040513d601f19601f820116820180604052508101906100ec9190610185565b94509450945094509450839650505050505050919050565b6000813590506101138161028b565b92915050565b600081519050610128816102a2565b92915050565b60008151905061013d816102b9565b92915050565b600081519050610152816102d0565b92915050565b60006020828403121561016e5761016d610286565b5b600061017c84828501610104565b91505092915050565b600080600080600060a086880312156101a1576101a0610286565b5b60006101af88828901610143565b95505060206101c088828901610119565b94505060406101d18882890161012e565b93505060606101e28882890161012e565b92505060806101f388828901610143565b9150509295509295909350565b6102098161023c565b82525050565b60006020820190506102246000830184610200565b92915050565b600061023582610246565b9050919050565b6000819050919050565b600073ffffffffffffffffffffffffffffffffffffffff82169050919050565b6000819050919050565b600069ffffffffffffffffffff82169050919050565b600080fd5b6102948161022a565b811461029f57600080fd5b50565b6102ab8161023c565b81146102b657600080fd5b50565b6102c281610266565b81146102cd57600080fd5b50565b6102d981610270565b81146102e457600080fd5b5056fea2646970667358221220ba9cc428b0dee054f98a7fe9ec517344f3650d078bf6508a7cf4d92830ea0e4e64736f6c63430008070033",
  "immutableReferences": {},
  "source": "// Staking.sol\n// SPDX-License-Identifier: MIT\npragma solidity 0.8.7;\n\n  import \"@openzeppelin/contracts/utils/math/SafeMath.sol\";\n  import \"../contracts/PriceConsumerV3.sol\";\n  import '@openzeppelin/contracts/token/ERC20/IERC20.sol';\n  import '@openzeppelin/contracts/token/ERC20/ERC20.sol';\n\n \n\n  contract Staking {\n    using SafeMath for uint256;\n\n    IERC20 public PureToken;\n    \n    uint256 public tvl = 0; // Total amount raised in ETH\n    uint public currentReward;\n    uint currentTime=0;\n    uint StakedTime=0;\n    mapping (address => uint256) public balances;\n    mapping (address => uint256) public TotalReward;  // Balances in incoming Ether\n    mapping (address => uint256) public TimeStake; \n    \n    \n    event Depot(address  _receiver,  uint256  _value);\n    event Whithdraw(address  _receiver,  uint256  _value);\n\n    constructor(address _addresseToken) public {\n        PureToken = IERC20(_addresseToken);\n    }\n\n    PriceConsumerV3 private priceConsumerV3 = new PriceConsumerV3();\n\n\n    receive() payable external {\n      balances[msg.sender] = balances[msg.sender].add(msg.value);\n      tvl = tvl.add(msg.value);\n      TimeStake[msg.sender]=block.timestamp;\n      emit Depot(msg.sender, msg.value);\n    }\n\n   // refund investisor\n  function withdrawPayments(uint256 _amount) public{\n    require(balances[msg.sender] != 0);\n    tvl = tvl.sub(_amount);\n    balances[msg.sender] = balances[msg.sender].sub(_amount);\n    payable(msg.sender).transfer(_amount);\n    emit Whithdraw(msg.sender, _amount);\n  }\n\n  function reward(address _address)public returns(uint){\n    uint TotalStake=balances[_address];\n    uint T_Stake=TimeStake[_address];\n    currentTime= block.timestamp;\n    StakedTime=block.timestamp-TimeStake[_address];\n    TotalReward[_address]=TotalStake*StakedTime/ 100000000000000;\n    return TotalReward[_address];\n  }\n\n  function getTime()public view returns(uint){\n    return block.timestamp;\n  }\n  \n  function claimReward(address recipient,uint montant)external{\n    TotalReward[msg.sender]=TotalReward[msg.sender]-(montant/100000000000000000000);\n    PureToken.transfer(recipient,montant);\n    \n  }\n    // fonction qui permet d'effectuer un transfer de dai vers le recipient\n  function VoirPrix(address token) public view returns(int) {\n    return priceConsumerV3.getLatestPrice(token);\n  }\n\n  \n}",
  "sourcePath": "C:\\Users\\xtrem\\OneDrive\\Documents\\LearnDAPP_Alyra\\Staking_defi_4\\Staking\\contracts\\Staking.sol",
  "compiler": {
    "name": "solc",
    "version": "0.8.7+commit.e28d00a7.Emscripten.clang"
  },
  "schemaVersion": "3.4.3",
  "updatedAt": "2021-12-06T13:49:38.208Z",
  "networkType": "ethereum",
  "devdoc": {
    "kind": "dev",
    "methods": {},
    "version": 1
  },
  "userdoc": {
    "kind": "user",
    "methods": {},
    "version": 1
  }
}