{
  "contractName": "Staking",
  "abi": [
    {
      "inputs": [],
      "stateMutability": "nonpayable",
      "type": "constructor"
    },
    {
      "anonymous": false,
      "inputs": [
        {
          "indexed": false,
          "internalType": "uint256",
          "name": "amount",
          "type": "uint256"
        }
      ],
      "name": "AmountReward",
      "type": "event"
    },
    {
      "anonymous": false,
      "inputs": [
        {
          "indexed": false,
          "internalType": "address",
          "name": "_receiver",
          "type": "address"
        },
        {
          "indexed": false,
          "internalType": "address",
          "name": "_addressToken",
          "type": "address"
        },
        {
          "indexed": false,
          "internalType": "uint256",
          "name": "_value",
          "type": "uint256"
        }
      ],
      "name": "Depot",
      "type": "event"
    },
    {
      "anonymous": false,
      "inputs": [
        {
          "indexed": false,
          "internalType": "address",
          "name": "_receiver",
          "type": "address"
        },
        {
          "indexed": false,
          "internalType": "address",
          "name": "_addressToken",
          "type": "address"
        },
        {
          "indexed": false,
          "internalType": "uint256",
          "name": "_value",
          "type": "uint256"
        }
      ],
      "name": "Whithdraw",
      "type": "event"
    },
    {
      "inputs": [
        {
          "internalType": "address",
          "name": "",
          "type": "address"
        }
      ],
      "name": "RewardUnpaid",
      "outputs": [
        {
          "internalType": "uint256",
          "name": "",
          "type": "uint256"
        }
      ],
      "stateMutability": "view",
      "type": "function",
      "constant": true
    },
    {
      "inputs": [
        {
          "internalType": "address",
          "name": "",
          "type": "address"
        }
      ],
      "name": "TimeStake",
      "outputs": [
        {
          "internalType": "uint256",
          "name": "",
          "type": "uint256"
        }
      ],
      "stateMutability": "view",
      "type": "function",
      "constant": true
    },
    {
      "inputs": [
        {
          "internalType": "address",
          "name": "",
          "type": "address"
        }
      ],
      "name": "balances",
      "outputs": [
        {
          "internalType": "uint256",
          "name": "",
          "type": "uint256"
        }
      ],
      "stateMutability": "view",
      "type": "function",
      "constant": true
    },
    {
      "inputs": [],
      "name": "index",
      "outputs": [
        {
          "internalType": "uint256",
          "name": "",
          "type": "uint256"
        }
      ],
      "stateMutability": "view",
      "type": "function",
      "constant": true
    },
    {
      "inputs": [],
      "name": "montantAddReward",
      "outputs": [
        {
          "internalType": "uint256",
          "name": "",
          "type": "uint256"
        }
      ],
      "stateMutability": "view",
      "type": "function",
      "constant": true
    },
    {
      "inputs": [],
      "name": "stakingToken",
      "outputs": [
        {
          "internalType": "contract TokenR",
          "name": "",
          "type": "address"
        }
      ],
      "stateMutability": "view",
      "type": "function",
      "constant": true
    },
    {
      "inputs": [],
      "name": "tvl",
      "outputs": [
        {
          "internalType": "uint256",
          "name": "",
          "type": "uint256"
        }
      ],
      "stateMutability": "view",
      "type": "function",
      "constant": true
    },
    {
      "inputs": [
        {
          "internalType": "address",
          "name": "_tokenAddress",
          "type": "address"
        },
        {
          "internalType": "uint256",
          "name": "_tokenValue",
          "type": "uint256"
        }
      ],
      "name": "stake",
      "outputs": [],
      "stateMutability": "nonpayable",
      "type": "function"
    },
    {
      "inputs": [
        {
          "internalType": "address",
          "name": "_tokenAddress",
          "type": "address"
        },
        {
          "internalType": "uint256",
          "name": "_amount",
          "type": "uint256"
        }
      ],
      "name": "withdrawPayments",
      "outputs": [],
      "stateMutability": "nonpayable",
      "type": "function"
    },
    {
      "inputs": [],
      "name": "ClaimAllReward",
      "outputs": [],
      "stateMutability": "nonpayable",
      "type": "function"
    },
    {
      "inputs": [
        {
          "internalType": "address",
          "name": "_address",
          "type": "address"
        }
      ],
      "name": "reward",
      "outputs": [],
      "stateMutability": "nonpayable",
      "type": "function"
    },
    {
      "inputs": [],
      "name": "getRewardUnpaid",
      "outputs": [
        {
          "internalType": "uint256",
          "name": "",
          "type": "uint256"
        }
      ],
      "stateMutability": "view",
      "type": "function",
      "constant": true
    },
    {
      "inputs": [],
      "name": "getTime",
      "outputs": [
        {
          "internalType": "uint256",
          "name": "",
          "type": "uint256"
        }
      ],
      "stateMutability": "view",
      "type": "function",
      "constant": true
    }
  ],
  "bytecode": "0x60806040526000600155600060025560006004553480156200002057600080fd5b506040516200002f906200012d565b604051809103906000f0801580156200004c573d6000803e3d6000fd5b506000806101000a81548173ffffffffffffffffffffffffffffffffffffffff021916908373ffffffffffffffffffffffffffffffffffffffff16021790555060008054906101000a900473ffffffffffffffffffffffffffffffffffffffff1673ffffffffffffffffffffffffffffffffffffffff16637b56c2b23069d3c21bcecceda10000006040518363ffffffff1660e01b8152600401620000f39291906200015d565b600060405180830381600087803b1580156200010e57600080fd5b505af115801562000123573d6000803e3d6000fd5b50505050620001dc565b611788806200129383390190565b62000146816200018a565b82525050565b6200015781620001c8565b82525050565b60006040820190506200017460008301856200013b565b6200018360208301846200014c565b9392505050565b600062000197826200019e565b9050919050565b600073ffffffffffffffffffffffffffffffffffffffff82169050919050565b6000819050919050565b6000620001d582620001be565b9050919050565b6110a780620001ec6000396000f3fe608060405234801561001057600080fd5b50600436106100cf5760003560e01c8063557ed1ba1161008c578063adc9772e11610066578063adc9772e146101ee578063db7926141461020a578063e5328e0614610228578063fc7a441614610246576100cf565b8063557ed1ba146101965780636353586b146101b457806372f702f3146101d0576100cf565b80630e7afec5146100d457806313544457146100f0578063153aa3271461010e57806327e235e31461013e5780632986c0e51461016e5780632c37388b1461018c575b600080fd5b6100ee60048036038101906100e99190610d06565b610276565b005b6100f86105a1565b6040516101059190610e1b565b60405180910390f35b61012860048036038101906101239190610cd9565b6105a7565b6040516101359190610e1b565b60405180910390f35b61015860048036038101906101539190610cd9565b6105bf565b6040516101659190610e1b565b60405180910390f35b6101766105d7565b6040516101839190610e1b565b60405180910390f35b6101946105dd565b005b61019e61072d565b6040516101ab9190610e1b565b60405180910390f35b6101ce60048036038101906101c99190610cd9565b610735565b005b6101d86108a1565b6040516101e59190610e00565b60405180910390f35b61020860048036038101906102039190610d06565b6108c5565b005b610212610c09565b60405161021f9190610e1b565b60405180910390f35b610230610c50565b60405161023d9190610e1b565b60405180910390f35b610260600480360381019061025b9190610cd9565b610c56565b60405161026d9190610e1b565b60405180910390f35b6000600560003373ffffffffffffffffffffffffffffffffffffffff1673ffffffffffffffffffffffffffffffffffffffff1681526020019081526020016000205414156102c357600080fd5b6102cc33610735565b60008054906101000a900473ffffffffffffffffffffffffffffffffffffffff1673ffffffffffffffffffffffffffffffffffffffff1663a9059cbb33670de0b6b3a7640000600660003373ffffffffffffffffffffffffffffffffffffffff1673ffffffffffffffffffffffffffffffffffffffff1681526020019081526020016000205461035c9190610ebd565b6040518363ffffffff1660e01b8152600401610379929190610dd7565b602060405180830381600087803b15801561039357600080fd5b505af11580156103a7573d6000803e3d6000fd5b505050506040513d601f19601f820116820180604052508101906103cb9190610d46565b506103e181600154610c6e90919063ffffffff16565b60018190555061043981600560003373ffffffffffffffffffffffffffffffffffffffff1673ffffffffffffffffffffffffffffffffffffffff16815260200190815260200160002054610c6e90919063ffffffff16565b600560003373ffffffffffffffffffffffffffffffffffffffff1673ffffffffffffffffffffffffffffffffffffffff168152602001908152602001600020819055506000600660003373ffffffffffffffffffffffffffffffffffffffff1673ffffffffffffffffffffffffffffffffffffffff168152602001908152602001600020819055508173ffffffffffffffffffffffffffffffffffffffff1663a9059cbb33670de0b6b3a7640000846104f29190610ebd565b6040518363ffffffff1660e01b815260040161050f929190610dd7565b602060405180830381600087803b15801561052957600080fd5b505af115801561053d573d6000803e3d6000fd5b505050506040513d601f19601f820116820180604052508101906105619190610d46565b507f5615e15194eba614f484f3aabb0239e2ac87feea864ecff1c23a9b4831d30a6433838360405161059593929190610da0565b60405180910390a15050565b60035481565b60066020528060005260406000206000915090505481565b60056020528060005260406000206000915090505481565b60045481565b6105e633610735565b60008054906101000a900473ffffffffffffffffffffffffffffffffffffffff1673ffffffffffffffffffffffffffffffffffffffff1663a9059cbb33670de0b6b3a7640000600660003373ffffffffffffffffffffffffffffffffffffffff1673ffffffffffffffffffffffffffffffffffffffff168152602001908152602001600020546106769190610ebd565b6040518363ffffffff1660e01b8152600401610693929190610dd7565b602060405180830381600087803b1580156106ad57600080fd5b505af11580156106c1573d6000803e3d6000fd5b505050506040513d601f19601f820116820180604052508101906106e59190610d46565b506000600660003373ffffffffffffffffffffffffffffffffffffffff1673ffffffffffffffffffffffffffffffffffffffff16815260200190815260200160002081905550565b600042905090565b6000600560008373ffffffffffffffffffffffffffffffffffffffff1673ffffffffffffffffffffffffffffffffffffffff168152602001908152602001600020549050600760008373ffffffffffffffffffffffffffffffffffffffff1673ffffffffffffffffffffffffffffffffffffffff16815260200190815260200160002054426107c49190610f17565b6002819055506064600254826107da9190610ebd565b6107e49190610e8c565b600660008473ffffffffffffffffffffffffffffffffffffffff1673ffffffffffffffffffffffffffffffffffffffff168152602001908152602001600020819055507fc4ca27942849d1cb4801cd01a9bffecf1becf17765d1dff6cca66ad8bff197fc600660003373ffffffffffffffffffffffffffffffffffffffff1673ffffffffffffffffffffffffffffffffffffffff168152602001908152602001600020546040516108959190610e1b565b60405180910390a15050565b60008054906101000a900473ffffffffffffffffffffffffffffffffffffffff1681565b6000600454146109d9576108d833610735565b60008054906101000a900473ffffffffffffffffffffffffffffffffffffffff1673ffffffffffffffffffffffffffffffffffffffff1663a9059cbb33670de0b6b3a7640000600660003373ffffffffffffffffffffffffffffffffffffffff1673ffffffffffffffffffffffffffffffffffffffff168152602001908152602001600020546109689190610ebd565b6040518363ffffffff1660e01b8152600401610985929190610dd7565b602060405180830381600087803b15801561099f57600080fd5b505af11580156109b3573d6000803e3d6000fd5b505050506040513d601f19601f820116820180604052508101906109d79190610d46565b505b610a2b81600560003373ffffffffffffffffffffffffffffffffffffffff1673ffffffffffffffffffffffffffffffffffffffff16815260200190815260200160002054610c8490919063ffffffff16565b600560003373ffffffffffffffffffffffffffffffffffffffff1673ffffffffffffffffffffffffffffffffffffffff16815260200190815260200160002081905550610a8381600154610c8490919063ffffffff16565b60018190555042600760003373ffffffffffffffffffffffffffffffffffffffff1673ffffffffffffffffffffffffffffffffffffffff168152602001908152602001600020819055506001600454610adc9190610e36565b6004819055506000600660003373ffffffffffffffffffffffffffffffffffffffff1673ffffffffffffffffffffffffffffffffffffffff168152602001908152602001600020819055508173ffffffffffffffffffffffffffffffffffffffff166323b872dd3330670de0b6b3a764000085610b599190610ebd565b6040518463ffffffff1660e01b8152600401610b7793929190610da0565b602060405180830381600087803b158015610b9157600080fd5b505af1158015610ba5573d6000803e3d6000fd5b505050506040513d601f19601f82011682018060405250810190610bc99190610d46565b507fdd5517f520c5a868c8b4d300a2d11947fb532db5e69b59c59a97f69f513687e2338383604051610bfd93929190610da0565b60405180910390a15050565b6000600660003373ffffffffffffffffffffffffffffffffffffffff1673ffffffffffffffffffffffffffffffffffffffff16815260200190815260200160002054905090565b60015481565b60076020528060005260406000206000915090505481565b60008183610c7c9190610f17565b905092915050565b60008183610c929190610e36565b905092915050565b600081359050610ca98161102c565b92915050565b600081519050610cbe81611043565b92915050565b600081359050610cd38161105a565b92915050565b600060208284031215610cef57610cee611027565b5b6000610cfd84828501610c9a565b91505092915050565b60008060408385031215610d1d57610d1c611027565b5b6000610d2b85828601610c9a565b9250506020610d3c85828601610cc4565b9150509250929050565b600060208284031215610d5c57610d5b611027565b5b6000610d6a84828501610caf565b91505092915050565b610d7c81610f4b565b82525050565b610d8b81610f93565b82525050565b610d9a81610f89565b82525050565b6000606082019050610db56000830186610d73565b610dc26020830185610d73565b610dcf6040830184610d91565b949350505050565b6000604082019050610dec6000830185610d73565b610df96020830184610d91565b9392505050565b6000602082019050610e156000830184610d82565b92915050565b6000602082019050610e306000830184610d91565b92915050565b6000610e4182610f89565b9150610e4c83610f89565b9250827fffffffffffffffffffffffffffffffffffffffffffffffffffffffffffffffff03821115610e8157610e80610fc9565b5b828201905092915050565b6000610e9782610f89565b9150610ea283610f89565b925082610eb257610eb1610ff8565b5b828204905092915050565b6000610ec882610f89565b9150610ed383610f89565b9250817fffffffffffffffffffffffffffffffffffffffffffffffffffffffffffffffff0483118215151615610f0c57610f0b610fc9565b5b828202905092915050565b6000610f2282610f89565b9150610f2d83610f89565b925082821015610f4057610f3f610fc9565b5b828203905092915050565b6000610f5682610f69565b9050919050565b60008115159050919050565b600073ffffffffffffffffffffffffffffffffffffffff82169050919050565b6000819050919050565b6000610f9e82610fa5565b9050919050565b6000610fb082610fb7565b9050919050565b6000610fc282610f69565b9050919050565b7f4e487b7100000000000000000000000000000000000000000000000000000000600052601160045260246000fd5b7f4e487b7100000000000000000000000000000000000000000000000000000000600052601260045260246000fd5b600080fd5b61103581610f4b565b811461104057600080fd5b50565b61104c81610f5d565b811461105757600080fd5b50565b61106381610f89565b811461106e57600080fd5b5056fea2646970667358221220e4e61f3844cb9ddbdfd8b70dab8e948b7ada2854d9a5f981302edb20e714ce3164736f6c6343000807003360806040523480156200001157600080fd5b506040518060400160405280600b81526020017f52657761726453757072610000000000000000000000000000000000000000008152506040518060400160405280600481526020017f5350524500000000000000000000000000000000000000000000000000000000815250816003908051906020019062000096929190620000b8565b508060049080519060200190620000af929190620000b8565b505050620001cd565b828054620000c69062000168565b90600052602060002090601f016020900481019282620000ea576000855562000136565b82601f106200010557805160ff191683800117855562000136565b8280016001018555821562000136579182015b828111156200013557825182559160200191906001019062000118565b5b50905062000145919062000149565b5090565b5b80821115620001645760008160009055506001016200014a565b5090565b600060028204905060018216806200018157607f821691505b602082108114156200019857620001976200019e565b5b50919050565b7f4e487b7100000000000000000000000000000000000000000000000000000000600052602260045260246000fd5b6115ab80620001dd6000396000f3fe608060405234801561001057600080fd5b50600436106100b45760003560e01c806370a082311161007157806370a08231146101a35780637b56c2b2146101d357806395d89b41146101ef578063a457c2d71461020d578063a9059cbb1461023d578063dd62ed3e1461026d576100b4565b806306fdde03146100b9578063095ea7b3146100d757806318160ddd1461010757806323b872dd14610125578063313ce567146101555780633950935114610173575b600080fd5b6100c161029d565b6040516100ce9190610ffd565b60405180910390f35b6100f160048036038101906100ec9190610e24565b61032f565b6040516100fe9190610fe2565b60405180910390f35b61010f61034d565b60405161011c919061111f565b60405180910390f35b61013f600480360381019061013a9190610dd1565b610357565b60405161014c9190610fe2565b60405180910390f35b61015d61044f565b60405161016a919061113a565b60405180910390f35b61018d60048036038101906101889190610e24565b610458565b60405161019a9190610fe2565b60405180910390f35b6101bd60048036038101906101b89190610d64565b610504565b6040516101ca919061111f565b60405180910390f35b6101ed60048036038101906101e89190610e24565b61054c565b005b6101f761055a565b6040516102049190610ffd565b60405180910390f35b61022760048036038101906102229190610e24565b6105ec565b6040516102349190610fe2565b60405180910390f35b61025760048036038101906102529190610e24565b6106d7565b6040516102649190610fe2565b60405180910390f35b61028760048036038101906102829190610d91565b6106f5565b604051610294919061111f565b60405180910390f35b6060600380546102ac9061124f565b80601f01602080910402602001604051908101604052809291908181526020018280546102d89061124f565b80156103255780601f106102fa57610100808354040283529160200191610325565b820191906000526020600020905b81548152906001019060200180831161030857829003601f168201915b5050505050905090565b600061034361033c61077c565b8484610784565b6001905092915050565b6000600254905090565b600061036484848461094f565b6000600160008673ffffffffffffffffffffffffffffffffffffffff1673ffffffffffffffffffffffffffffffffffffffff16815260200190815260200160002060006103af61077c565b73ffffffffffffffffffffffffffffffffffffffff1673ffffffffffffffffffffffffffffffffffffffff1681526020019081526020016000205490508281101561042f576040517f08c379a00000000000000000000000000000000000000000000000000000000081526004016104269061107f565b60405180910390fd5b6104438561043b61077c565b858403610784565b60019150509392505050565b60006012905090565b60006104fa61046561077c565b84846001600061047361077c565b73ffffffffffffffffffffffffffffffffffffffff1673ffffffffffffffffffffffffffffffffffffffff16815260200190815260200160002060008873ffffffffffffffffffffffffffffffffffffffff1673ffffffffffffffffffffffffffffffffffffffff168152602001908152602001600020546104f59190611171565b610784565b6001905092915050565b60008060008373ffffffffffffffffffffffffffffffffffffffff1673ffffffffffffffffffffffffffffffffffffffff168152602001908152602001600020549050919050565b6105568282610bd0565b5050565b6060600480546105699061124f565b80601f01602080910402602001604051908101604052809291908181526020018280546105959061124f565b80156105e25780601f106105b7576101008083540402835291602001916105e2565b820191906000526020600020905b8154815290600101906020018083116105c557829003601f168201915b5050505050905090565b600080600160006105fb61077c565b73ffffffffffffffffffffffffffffffffffffffff1673ffffffffffffffffffffffffffffffffffffffff16815260200190815260200160002060008573ffffffffffffffffffffffffffffffffffffffff1673ffffffffffffffffffffffffffffffffffffffff168152602001908152602001600020549050828110156106b8576040517f08c379a00000000000000000000000000000000000000000000000000000000081526004016106af906110df565b60405180910390fd5b6106cc6106c361077c565b85858403610784565b600191505092915050565b60006106eb6106e461077c565b848461094f565b6001905092915050565b6000600160008473ffffffffffffffffffffffffffffffffffffffff1673ffffffffffffffffffffffffffffffffffffffff16815260200190815260200160002060008373ffffffffffffffffffffffffffffffffffffffff1673ffffffffffffffffffffffffffffffffffffffff16815260200190815260200160002054905092915050565b600033905090565b600073ffffffffffffffffffffffffffffffffffffffff168373ffffffffffffffffffffffffffffffffffffffff1614156107f4576040517f08c379a00000000000000000000000000000000000000000000000000000000081526004016107eb906110bf565b60405180910390fd5b600073ffffffffffffffffffffffffffffffffffffffff168273ffffffffffffffffffffffffffffffffffffffff161415610864576040517f08c379a000000000000000000000000000000000000000000000000000000000815260040161085b9061103f565b60405180910390fd5b80600160008573ffffffffffffffffffffffffffffffffffffffff1673ffffffffffffffffffffffffffffffffffffffff16815260200190815260200160002060008473ffffffffffffffffffffffffffffffffffffffff1673ffffffffffffffffffffffffffffffffffffffff168152602001908152602001600020819055508173ffffffffffffffffffffffffffffffffffffffff168373ffffffffffffffffffffffffffffffffffffffff167f8c5be1e5ebec7d5bd14f71427d1e84f3dd0314c0f7b2291e5b200ac8c7c3b92583604051610942919061111f565b60405180910390a3505050565b600073ffffffffffffffffffffffffffffffffffffffff168373ffffffffffffffffffffffffffffffffffffffff1614156109bf576040517f08c379a00000000000000000000000000000000000000000000000000000000081526004016109b69061109f565b60405180910390fd5b600073ffffffffffffffffffffffffffffffffffffffff168273ffffffffffffffffffffffffffffffffffffffff161415610a2f576040517f08c379a0000000000000000000000000000000000000000000000000000000008152600401610a269061101f565b60405180910390fd5b610a3a838383610d30565b60008060008573ffffffffffffffffffffffffffffffffffffffff1673ffffffffffffffffffffffffffffffffffffffff16815260200190815260200160002054905081811015610ac0576040517f08c379a0000000000000000000000000000000000000000000000000000000008152600401610ab79061105f565b60405180910390fd5b8181036000808673ffffffffffffffffffffffffffffffffffffffff1673ffffffffffffffffffffffffffffffffffffffff16815260200190815260200160002081905550816000808573ffffffffffffffffffffffffffffffffffffffff1673ffffffffffffffffffffffffffffffffffffffff1681526020019081526020016000206000828254610b539190611171565b925050819055508273ffffffffffffffffffffffffffffffffffffffff168473ffffffffffffffffffffffffffffffffffffffff167fddf252ad1be2c89b69c2b068fc378daa952ba7f163c4a11628f55a4df523b3ef84604051610bb7919061111f565b60405180910390a3610bca848484610d35565b50505050565b600073ffffffffffffffffffffffffffffffffffffffff168273ffffffffffffffffffffffffffffffffffffffff161415610c40576040517f08c379a0000000000000000000000000000000000000000000000000000000008152600401610c37906110ff565b60405180910390fd5b610c4c60008383610d30565b8060026000828254610c5e9190611171565b92505081905550806000808473ffffffffffffffffffffffffffffffffffffffff1673ffffffffffffffffffffffffffffffffffffffff1681526020019081526020016000206000828254610cb39190611171565b925050819055508173ffffffffffffffffffffffffffffffffffffffff16600073ffffffffffffffffffffffffffffffffffffffff167fddf252ad1be2c89b69c2b068fc378daa952ba7f163c4a11628f55a4df523b3ef83604051610d18919061111f565b60405180910390a3610d2c60008383610d35565b5050565b505050565b505050565b600081359050610d4981611547565b92915050565b600081359050610d5e8161155e565b92915050565b600060208284031215610d7a57610d796112df565b5b6000610d8884828501610d3a565b91505092915050565b60008060408385031215610da857610da76112df565b5b6000610db685828601610d3a565b9250506020610dc785828601610d3a565b9150509250929050565b600080600060608486031215610dea57610de96112df565b5b6000610df886828701610d3a565b9350506020610e0986828701610d3a565b9250506040610e1a86828701610d4f565b9150509250925092565b60008060408385031215610e3b57610e3a6112df565b5b6000610e4985828601610d3a565b9250506020610e5a85828601610d4f565b9150509250929050565b610e6d816111d9565b82525050565b6000610e7e82611155565b610e888185611160565b9350610e9881856020860161121c565b610ea1816112e4565b840191505092915050565b6000610eb9602383611160565b9150610ec4826112f5565b604082019050919050565b6000610edc602283611160565b9150610ee782611344565b604082019050919050565b6000610eff602683611160565b9150610f0a82611393565b604082019050919050565b6000610f22602883611160565b9150610f2d826113e2565b604082019050919050565b6000610f45602583611160565b9150610f5082611431565b604082019050919050565b6000610f68602483611160565b9150610f7382611480565b604082019050919050565b6000610f8b602583611160565b9150610f96826114cf565b604082019050919050565b6000610fae601f83611160565b9150610fb98261151e565b602082019050919050565b610fcd81611205565b82525050565b610fdc8161120f565b82525050565b6000602082019050610ff76000830184610e64565b92915050565b600060208201905081810360008301526110178184610e73565b905092915050565b6000602082019050818103600083015261103881610eac565b9050919050565b6000602082019050818103600083015261105881610ecf565b9050919050565b6000602082019050818103600083015261107881610ef2565b9050919050565b6000602082019050818103600083015261109881610f15565b9050919050565b600060208201905081810360008301526110b881610f38565b9050919050565b600060208201905081810360008301526110d881610f5b565b9050919050565b600060208201905081810360008301526110f881610f7e565b9050919050565b6000602082019050818103600083015261111881610fa1565b9050919050565b60006020820190506111346000830184610fc4565b92915050565b600060208201905061114f6000830184610fd3565b92915050565b600081519050919050565b600082825260208201905092915050565b600061117c82611205565b915061118783611205565b9250827fffffffffffffffffffffffffffffffffffffffffffffffffffffffffffffffff038211156111bc576111bb611281565b5b828201905092915050565b60006111d2826111e5565b9050919050565b60008115159050919050565b600073ffffffffffffffffffffffffffffffffffffffff82169050919050565b6000819050919050565b600060ff82169050919050565b60005b8381101561123a57808201518184015260208101905061121f565b83811115611249576000848401525b50505050565b6000600282049050600182168061126757607f821691505b6020821081141561127b5761127a6112b0565b5b50919050565b7f4e487b7100000000000000000000000000000000000000000000000000000000600052601160045260246000fd5b7f4e487b7100000000000000000000000000000000000000000000000000000000600052602260045260246000fd5b600080fd5b6000601f19601f8301169050919050565b7f45524332303a207472616e7366657220746f20746865207a65726f206164647260008201527f6573730000000000000000000000000000000000000000000000000000000000602082015250565b7f45524332303a20617070726f766520746f20746865207a65726f20616464726560008201527f7373000000000000000000000000000000000000000000000000000000000000602082015250565b7f45524332303a207472616e7366657220616d6f756e742065786365656473206260008201527f616c616e63650000000000000000000000000000000000000000000000000000602082015250565b7f45524332303a207472616e7366657220616d6f756e742065786365656473206160008201527f6c6c6f77616e6365000000000000000000000000000000000000000000000000602082015250565b7f45524332303a207472616e736665722066726f6d20746865207a65726f20616460008201527f6472657373000000000000000000000000000000000000000000000000000000602082015250565b7f45524332303a20617070726f76652066726f6d20746865207a65726f2061646460008201527f7265737300000000000000000000000000000000000000000000000000000000602082015250565b7f45524332303a2064656372656173656420616c6c6f77616e63652062656c6f7760008201527f207a65726f000000000000000000000000000000000000000000000000000000602082015250565b7f45524332303a206d696e7420746f20746865207a65726f206164647265737300600082015250565b611550816111c7565b811461155b57600080fd5b50565b61156781611205565b811461157257600080fd5b5056fea2646970667358221220988a8a8c98dcbe2526709a3cbbbe801fcf197380eb5f6a8a453a6467ba68b42864736f6c63430008070033",
  "immutableReferences": {},
  "source": "// SPDX-License-Identifier: MIT\r\npragma solidity 0.8.7;\r\n\r\nimport \"@openzeppelin/contracts/utils/math/SafeMath.sol\";\r\n//import \"./PriceConsumerV3.sol\";\r\nimport \"@openzeppelin/contracts/token/ERC20/IERC20.sol\";\r\nimport \"@openzeppelin/contracts/token/ERC20/ERC20.sol\";\r\nimport \"./TokenReward.sol\";\r\n\r\n\r\ncontract Staking {\r\n\r\n\r\n  TokenR public stakingToken;        //TokenReward\r\n  using SafeMath for uint256;\r\n  uint256 public tvl = 0; // Total deposer dans ce Smart Contract\r\n  uint StakedTime=0;\r\n  uint public montantAddReward;\r\n  uint public index=0;\r\n  mapping (address => uint256) public balances;     //address -> balance \r\n  mapping (address => uint256) public RewardUnpaid; //address -> Montant gagne en TokenReward\r\n  mapping (address => uint256) public TimeStake; //address -> date de la dernier transaction dans ce smart contract\r\n    \r\n  //Evenement \r\n  event Depot(address  _receiver,address  _addressToken, uint256  _value);\r\n  event Whithdraw(address  _receiver,address  _addressToken,  uint256  _value);\r\n  event AmountReward(uint amount);\r\n\r\n  //Contructor Iniatilisation du token de reward ainsi que sa fabrication\r\n  constructor() {\r\n    stakingToken = new TokenR();\r\n    stakingToken.faucet(address(this),1000000000000000000000000);\r\n  }\r\n\r\n  //PriceConsumerV3 private priceConsumerV3 = new PriceConsumerV3();\r\n\r\n/*********************************************************************************************************\r\n * @dev Permet a utilisateur de stake un token mais va rendre egalement envoie les rewards deja gagn\r\n * @param _tokenAddress Adresse du token a Stake\r\n * @param _tokenValue Valeur qu'on aimerait stake dans ce smart contract pour gagner des rewards\r\n ***********************************************************************************************************/\r\n\r\n  function stake(address _tokenAddress, uint256 _tokenValue) public {  \r\n    if(index!=0){\r\n      reward(msg.sender);\r\n      stakingToken.transfer(msg.sender,RewardUnpaid[msg.sender]*1000000000000000000);\r\n    }\r\n    balances[msg.sender] = balances[msg.sender].add(_tokenValue);\r\n    tvl = tvl.add(_tokenValue);   \r\n    TimeStake[msg.sender]=block.timestamp;\r\n    index=index+1;\r\n    RewardUnpaid[msg.sender]=0;\r\n    ERC20(_tokenAddress).transferFrom(msg.sender,address(this),_tokenValue*1000000000000000000);\r\n    emit Depot(msg.sender, _tokenAddress,_tokenValue);\r\n  }\r\n\r\n  /*********************************************************************************************************\r\n * @dev Permet a l'utilisateur de retirer ses token deposer et retirer ses rewards gagn\r\n * @param _tokenAddress Adresse du token a Stake\r\n * @param _tokenValue Valeur qu'on aimerait retirer dans ce smart contract \r\n ***********************************************************************************************************/\r\n\r\n  function withdrawPayments(address _tokenAddress, uint256 _amount) public{\r\n    require(balances[msg.sender] != 0);\r\n    reward(msg.sender);\r\n    stakingToken.transfer(msg.sender,RewardUnpaid[msg.sender]*1000000000000000000);\r\n\r\n    tvl = tvl.sub(_amount);\r\n    balances[msg.sender] = balances[msg.sender].sub(_amount);\r\n    \r\n    RewardUnpaid[msg.sender]=0;\r\n    ERC20(_tokenAddress).transfer(msg.sender, _amount*1000000000000000000);\r\n    emit Whithdraw(msg.sender,_tokenAddress ,_amount);\r\n  }\r\n/*********************************************************************************************************\r\n * @dev Permet a l'utilisateur de retirer tout ses reward\r\n ***********************************************************************************************************/\r\n  function ClaimAllReward() public{\r\n    reward(msg.sender);\r\n    stakingToken.transfer(msg.sender,RewardUnpaid[msg.sender]*1000000000000000000);\r\n    RewardUnpaid[msg.sender]=0;\r\n  }\r\n/*********************************************************************************************************\r\n * @dev Permet a l'utilisateur de rafraichir le nombre de token gagner \r\n * @param _address Adresse du proprietaire qui a deposer ses token\r\n ***********************************************************************************************************/\r\n  function reward(address _address)public{\r\n    uint TotalStake=balances[_address];\r\n    StakedTime=block.timestamp-TimeStake[_address];\r\n    RewardUnpaid[_address]=TotalStake*StakedTime/ 100;\r\n    emit AmountReward(RewardUnpaid[msg.sender]);\r\n  }\r\n/*********************************************************************************************************\r\n * @dev Permet a l'utilisateur de voir combien il a gagne   \r\n ***********************************************************************************************************/\r\n  function getRewardUnpaid()public view returns(uint){\r\n    return RewardUnpaid[msg.sender];\r\n  }\r\n\r\n  function getTime()public view returns(uint){\r\n    return block.timestamp;\r\n  }\r\n/*********************************************************************************************************\r\n * @dev Permet a l'utilisateur la capactie d'avoir le prix d'un token a grace a CHAINLINK\r\n * @param token Adresse du token(KOVAN OU RINKEBY OU MAINNET) pour l'utilisation de chainlink \r\n\r\n ***********************************************************************************************************/\r\n  // function VoirPrix(address token) public view returns(int) {\r\n  //   return priceConsumerV3.getLatestPrice(token);\r\n  // } \r\n}\r\n",
  "sourcePath": "C:\\Users\\xtrem\\OneDrive\\Documents\\LearnDAPP_Alyra\\Staking_defi_4\\Staking\\contracts\\Staking.sol",
  "compiler": {
    "name": "solc",
    "version": "0.8.7+commit.e28d00a7.Emscripten.clang"
  },
  "schemaVersion": "3.4.3",
  "updatedAt": "2021-12-13T14:16:00.410Z",
  "networkType": "ethereum",
  "devdoc": {
    "kind": "dev",
    "methods": {},
    "version": 1
  },
  "userdoc": {
    "kind": "user",
    "methods": {},
    "version": 1
  }
}