{
  "contractName": "Staking",
  "abi": [
    {
      "inputs": [],
      "stateMutability": "nonpayable",
      "type": "constructor"
    },
    {
      "anonymous": false,
      "inputs": [
        {
          "indexed": false,
          "internalType": "address",
          "name": "_receiver",
          "type": "address"
        },
        {
          "indexed": false,
          "internalType": "uint256",
          "name": "_value",
          "type": "uint256"
        }
      ],
      "name": "Depot",
      "type": "event"
    },
    {
      "anonymous": false,
      "inputs": [
        {
          "indexed": false,
          "internalType": "address",
          "name": "_receiver",
          "type": "address"
        },
        {
          "indexed": false,
          "internalType": "uint256",
          "name": "_value",
          "type": "uint256"
        }
      ],
      "name": "Whithdraw",
      "type": "event"
    },
    {
      "inputs": [
        {
          "internalType": "address",
          "name": "",
          "type": "address"
        }
      ],
      "name": "balances",
      "outputs": [
        {
          "internalType": "uint256",
          "name": "",
          "type": "uint256"
        }
      ],
      "stateMutability": "view",
      "type": "function",
      "constant": true
    },
    {
      "inputs": [],
      "name": "tvl",
      "outputs": [
        {
          "internalType": "uint256",
          "name": "",
          "type": "uint256"
        }
      ],
      "stateMutability": "view",
      "type": "function",
      "constant": true
    },
    {
      "stateMutability": "payable",
      "type": "receive",
      "payable": true
    },
    {
      "inputs": [],
      "name": "getLatestPrice",
      "outputs": [
        {
          "internalType": "int256",
          "name": "",
          "type": "int256"
        }
      ],
      "stateMutability": "view",
      "type": "function",
      "constant": true
    },
    {
      "inputs": [
        {
          "internalType": "uint256",
          "name": "_amount",
          "type": "uint256"
        }
      ],
      "name": "withdrawPayments",
      "outputs": [],
      "stateMutability": "nonpayable",
      "type": "function"
    }
  ],
  "bytecode": "0x60806040526000805534801561001457600080fd5b50739326bfa02add2366b30bacb125260af641031331600260006101000a81548173ffffffffffffffffffffffffffffffffffffffff021916908373ffffffffffffffffffffffffffffffffffffffff1602179055506107f2806100796000396000f3fe6080604052600436106100435760003560e01c806327e235e31461013857806341975af8146101755780638e15f4731461019e578063e5328e06146101c957610133565b366101335761009a34600160003373ffffffffffffffffffffffffffffffffffffffff1673ffffffffffffffffffffffffffffffffffffffff168152602001908152602001600020546101f490919063ffffffff16565b600160003373ffffffffffffffffffffffffffffffffffffffff1673ffffffffffffffffffffffffffffffffffffffff168152602001908152602001600020819055506100f2346000546101f490919063ffffffff16565b6000819055507f92d7e50c6d258fcfe05195031b3dda612a749118f6e727e3ac175e8301fd774933346040516101299291906105e7565b60405180910390a1005b600080fd5b34801561014457600080fd5b5061015f600480360381019061015a91906104e5565b61020a565b60405161016c919061062b565b60405180910390f35b34801561018157600080fd5b5061019c60048036038101906101979190610512565b610222565b005b3480156101aa57600080fd5b506101b36103a2565b6040516101c09190610610565b60405180910390f35b3480156101d557600080fd5b506101de610460565b6040516101eb919061062b565b60405180910390f35b600081836102029190610646565b905092915050565b60016020528060005260406000206000915090505481565b6000600160003373ffffffffffffffffffffffffffffffffffffffff1673ffffffffffffffffffffffffffffffffffffffff16815260200190815260200160002054141561026f57600080fd5b6102848160005461046690919063ffffffff16565b6000819055506102dc81600160003373ffffffffffffffffffffffffffffffffffffffff1673ffffffffffffffffffffffffffffffffffffffff1681526020019081526020016000205461046690919063ffffffff16565b600160003373ffffffffffffffffffffffffffffffffffffffff1673ffffffffffffffffffffffffffffffffffffffff168152602001908152602001600020819055503373ffffffffffffffffffffffffffffffffffffffff166108fc829081150290604051600060405180830381858888f19350505050158015610365573d6000803e3d6000fd5b507fea63ff9fa6efcd26cc8f1274b4db4983618cd56e61ea2cee3cb69e6591abd69033826040516103979291906105e7565b60405180910390a150565b600080600080600080600260009054906101000a900473ffffffffffffffffffffffffffffffffffffffff1673ffffffffffffffffffffffffffffffffffffffff1663feaf968c6040518163ffffffff1660e01b815260040160a06040518083038186803b15801561041357600080fd5b505afa158015610427573d6000803e3d6000fd5b505050506040513d601f19601f8201168201806040525081019061044b919061053f565b94509450945094509450839550505050505090565b60005481565b60008183610474919061069c565b905092915050565b60008135905061048b81610760565b92915050565b6000815190506104a081610777565b92915050565b6000813590506104b58161078e565b92915050565b6000815190506104ca8161078e565b92915050565b6000815190506104df816107a5565b92915050565b6000602082840312156104fb576104fa61075b565b5b60006105098482850161047c565b91505092915050565b6000602082840312156105285761052761075b565b5b6000610536848285016104a6565b91505092915050565b600080600080600060a0868803121561055b5761055a61075b565b5b6000610569888289016104d0565b955050602061057a88828901610491565b945050604061058b888289016104bb565b935050606061059c888289016104bb565b92505060806105ad888289016104d0565b9150509295509295909350565b6105c3816106d0565b82525050565b6105d2816106e2565b82525050565b6105e18161070c565b82525050565b60006040820190506105fc60008301856105ba565b61060960208301846105d8565b9392505050565b600060208201905061062560008301846105c9565b92915050565b600060208201905061064060008301846105d8565b92915050565b60006106518261070c565b915061065c8361070c565b9250827fffffffffffffffffffffffffffffffffffffffffffffffffffffffffffffffff038211156106915761069061072c565b5b828201905092915050565b60006106a78261070c565b91506106b28361070c565b9250828210156106c5576106c461072c565b5b828203905092915050565b60006106db826106ec565b9050919050565b6000819050919050565b600073ffffffffffffffffffffffffffffffffffffffff82169050919050565b6000819050919050565b600069ffffffffffffffffffff82169050919050565b7f4e487b7100000000000000000000000000000000000000000000000000000000600052601160045260246000fd5b600080fd5b610769816106d0565b811461077457600080fd5b50565b610780816106e2565b811461078b57600080fd5b50565b6107978161070c565b81146107a257600080fd5b50565b6107ae81610716565b81146107b957600080fd5b5056fea26469706673582212200fd70dee250806c5a445f513fed99e06233b7b8108ca9cbfe85dfaca90bfa91264736f6c63430008070033",
  "immutableReferences": {},
  "source": "// Staking.sol\n// SPDX-License-Identifier: MIT\npragma solidity 0.8.7;\nimport \"@openzeppelin/contracts/utils/math/SafeMath.sol\";\nimport \"@chainlink/contracts/src/v0.8/interfaces/AggregatorV3Interface.sol\";\n\n \n\ncontract Staking {\n\n  using SafeMath for uint256;\n  uint256 public tvl = 0; // Total amount raised in ETH\n  mapping (address => uint256) public balances; // Balances in incoming Ether\n  event Depot(address  _receiver,  uint256  _value);\n  event Whithdraw(address  _receiver,  uint256  _value);\n  \n  AggregatorV3Interface internal priceFeed;\n\n    /**\n     * Network: Kovan\n     * Aggregator: ETH/USD\n     * Address: 0x9326BFA02ADD2366b30bacB125260Af641031331\n     */\n    constructor() {\n        priceFeed = AggregatorV3Interface(0x9326BFA02ADD2366b30bacB125260Af641031331);\n    }\n\n    /**\n     * Returns the latest price\n     */\n    function getLatestPrice() public view returns (int) {\n        (\n            uint80 roundID, \n            int price,\n            uint startedAt,\n            uint timeStamp,\n            uint80 answeredInRound\n        ) = priceFeed.latestRoundData();\n        return price;\n    }\n   // function to receive ETH\n  receive() payable external {\n      balances[msg.sender] = balances[msg.sender].add(msg.value);\n      tvl = tvl.add(msg.value);\n      emit Depot(msg.sender, msg.value);\n\n  }\n   // refund investisor\n  function withdrawPayments(uint256 _amount) public{\n    require(balances[msg.sender] != 0);\n    \n    tvl = tvl.sub(_amount);\n    balances[msg.sender] = balances[msg.sender].sub(_amount);\n    payable(msg.sender).transfer(_amount);\n    emit Whithdraw(msg.sender, _amount);\n  }\n\n\n}",
  "sourcePath": "C:\\Users\\xtrem\\OneDrive\\Documents\\LearnDAPP_Alyra\\Staking_defi_4\\Staking\\contracts\\Staking.sol",
  "compiler": {
    "name": "solc",
    "version": "0.8.7+commit.e28d00a7.Emscripten.clang"
  },
  "schemaVersion": "3.4.3",
  "updatedAt": "2021-11-16T14:24:36.575Z",
  "networkType": "ethereum",
  "devdoc": {
    "kind": "dev",
    "methods": {},
    "version": 1
  },
  "userdoc": {
    "kind": "user",
    "methods": {
      "constructor": {
        "notice": "Network: Kovan Aggregator: ETH/USD Address: 0x9326BFA02ADD2366b30bacB125260Af641031331"
      },
      "getLatestPrice()": {
        "notice": "Returns the latest price"
      }
    },
    "version": 1
  }
}